{
  "_format": "hh-sol-artifact-1",
  "contractName": "TaylorKlay",
  "sourceName": "contracts/TaylorKlay.sol",
  "abi": [
    {
      "inputs": [],
      "stateMutability": "nonpayable",
      "type": "constructor"
    },
    {
      "anonymous": false,
      "inputs": [
        {
          "indexed": true,
          "internalType": "address",
          "name": "owner",
          "type": "address"
        },
        {
          "indexed": true,
          "internalType": "address",
          "name": "approved",
          "type": "address"
        },
        {
          "indexed": true,
          "internalType": "uint256",
          "name": "tokenId",
          "type": "uint256"
        }
      ],
      "name": "Approval",
      "type": "event"
    },
    {
      "anonymous": false,
      "inputs": [
        {
          "indexed": true,
          "internalType": "address",
          "name": "owner",
          "type": "address"
        },
        {
          "indexed": true,
          "internalType": "address",
          "name": "operator",
          "type": "address"
        },
        {
          "indexed": false,
          "internalType": "bool",
          "name": "approved",
          "type": "bool"
        }
      ],
      "name": "ApprovalForAll",
      "type": "event"
    },
    {
      "anonymous": false,
      "inputs": [
        {
          "indexed": true,
          "internalType": "address",
          "name": "previousOwner",
          "type": "address"
        },
        {
          "indexed": true,
          "internalType": "address",
          "name": "newOwner",
          "type": "address"
        }
      ],
      "name": "OwnershipTransferred",
      "type": "event"
    },
    {
      "anonymous": false,
      "inputs": [
        {
          "indexed": true,
          "internalType": "address",
          "name": "from",
          "type": "address"
        },
        {
          "indexed": true,
          "internalType": "address",
          "name": "to",
          "type": "address"
        },
        {
          "indexed": true,
          "internalType": "uint256",
          "name": "tokenId",
          "type": "uint256"
        }
      ],
      "name": "Transfer",
      "type": "event"
    },
    {
      "inputs": [
        {
          "internalType": "address",
          "name": "",
          "type": "address"
        }
      ],
      "name": "addressToAmountDonate",
      "outputs": [
        {
          "internalType": "uint256",
          "name": "",
          "type": "uint256"
        }
      ],
      "stateMutability": "view",
      "type": "function"
    },
    {
      "inputs": [
        {
          "internalType": "address",
          "name": "",
          "type": "address"
        }
      ],
      "name": "addressToAmountMint",
      "outputs": [
        {
          "internalType": "uint256",
          "name": "",
          "type": "uint256"
        }
      ],
      "stateMutability": "view",
      "type": "function"
    },
    {
      "inputs": [
        {
          "internalType": "address",
          "name": "to",
          "type": "address"
        },
        {
          "internalType": "uint256",
          "name": "tokenId",
          "type": "uint256"
        }
      ],
      "name": "approve",
      "outputs": [],
      "stateMutability": "nonpayable",
      "type": "function"
    },
    {
      "inputs": [
        {
          "internalType": "address",
          "name": "owner",
          "type": "address"
        }
      ],
      "name": "balanceOf",
      "outputs": [
        {
          "internalType": "uint256",
          "name": "",
          "type": "uint256"
        }
      ],
      "stateMutability": "view",
      "type": "function"
    },
    {
      "inputs": [],
      "name": "donate",
      "outputs": [],
      "stateMutability": "payable",
      "type": "function"
    },
    {
      "inputs": [
        {
          "internalType": "uint256",
          "name": "tokenId",
          "type": "uint256"
        }
      ],
      "name": "getApproved",
      "outputs": [
        {
          "internalType": "address",
          "name": "",
          "type": "address"
        }
      ],
      "stateMutability": "view",
      "type": "function"
    },
    {
      "inputs": [
        {
          "internalType": "address",
          "name": "owner",
          "type": "address"
        },
        {
          "internalType": "address",
          "name": "operator",
          "type": "address"
        }
      ],
      "name": "isApprovedForAll",
      "outputs": [
        {
          "internalType": "bool",
          "name": "",
          "type": "bool"
        }
      ],
      "stateMutability": "view",
      "type": "function"
    },
    {
      "inputs": [
        {
          "internalType": "string",
          "name": "tokenURI",
          "type": "string"
        }
      ],
      "name": "mintNFT",
      "outputs": [],
      "stateMutability": "payable",
      "type": "function"
    },
    {
      "inputs": [],
      "name": "mintPrice",
      "outputs": [
        {
          "internalType": "uint256",
          "name": "",
          "type": "uint256"
        }
      ],
      "stateMutability": "view",
      "type": "function"
    },
    {
      "inputs": [],
      "name": "name",
      "outputs": [
        {
          "internalType": "string",
          "name": "",
          "type": "string"
        }
      ],
      "stateMutability": "view",
      "type": "function"
    },
    {
      "inputs": [],
      "name": "owner",
      "outputs": [
        {
          "internalType": "address",
          "name": "",
          "type": "address"
        }
      ],
      "stateMutability": "view",
      "type": "function"
    },
    {
      "inputs": [
        {
          "internalType": "uint256",
          "name": "tokenId",
          "type": "uint256"
        }
      ],
      "name": "ownerOf",
      "outputs": [
        {
          "internalType": "address",
          "name": "",
          "type": "address"
        }
      ],
      "stateMutability": "view",
      "type": "function"
    },
    {
      "inputs": [],
      "name": "renounceOwnership",
      "outputs": [],
      "stateMutability": "nonpayable",
      "type": "function"
    },
    {
      "inputs": [
        {
          "internalType": "address",
          "name": "from",
          "type": "address"
        },
        {
          "internalType": "address",
          "name": "to",
          "type": "address"
        },
        {
          "internalType": "uint256",
          "name": "tokenId",
          "type": "uint256"
        }
      ],
      "name": "safeTransferFrom",
      "outputs": [],
      "stateMutability": "nonpayable",
      "type": "function"
    },
    {
      "inputs": [
        {
          "internalType": "address",
          "name": "from",
          "type": "address"
        },
        {
          "internalType": "address",
          "name": "to",
          "type": "address"
        },
        {
          "internalType": "uint256",
          "name": "tokenId",
          "type": "uint256"
        },
        {
          "internalType": "bytes",
          "name": "_data",
          "type": "bytes"
        }
      ],
      "name": "safeTransferFrom",
      "outputs": [],
      "stateMutability": "nonpayable",
      "type": "function"
    },
    {
      "inputs": [
        {
          "internalType": "address",
          "name": "operator",
          "type": "address"
        },
        {
          "internalType": "bool",
          "name": "approved",
          "type": "bool"
        }
      ],
      "name": "setApprovalForAll",
      "outputs": [],
      "stateMutability": "nonpayable",
      "type": "function"
    },
    {
      "inputs": [
        {
          "internalType": "uint256",
          "name": "newMintPrice",
          "type": "uint256"
        }
      ],
      "name": "setMintPrice",
      "outputs": [],
      "stateMutability": "nonpayable",
      "type": "function"
    },
    {
      "inputs": [
        {
          "internalType": "bytes4",
          "name": "interfaceId",
          "type": "bytes4"
        }
      ],
      "name": "supportsInterface",
      "outputs": [
        {
          "internalType": "bool",
          "name": "",
          "type": "bool"
        }
      ],
      "stateMutability": "view",
      "type": "function"
    },
    {
      "inputs": [],
      "name": "symbol",
      "outputs": [
        {
          "internalType": "string",
          "name": "",
          "type": "string"
        }
      ],
      "stateMutability": "view",
      "type": "function"
    },
    {
      "inputs": [],
      "name": "tokenIdCounter",
      "outputs": [
        {
          "internalType": "uint256",
          "name": "_value",
          "type": "uint256"
        }
      ],
      "stateMutability": "view",
      "type": "function"
    },
    {
      "inputs": [
        {
          "internalType": "uint256",
          "name": "",
          "type": "uint256"
        }
      ],
      "name": "tokenIdToTokenUri",
      "outputs": [
        {
          "internalType": "string",
          "name": "",
          "type": "string"
        }
      ],
      "stateMutability": "view",
      "type": "function"
    },
    {
      "inputs": [
        {
          "internalType": "uint256",
          "name": "tokenId",
          "type": "uint256"
        }
      ],
      "name": "tokenURI",
      "outputs": [
        {
          "internalType": "string",
          "name": "",
          "type": "string"
        }
      ],
      "stateMutability": "view",
      "type": "function"
    },
    {
      "inputs": [
        {
          "internalType": "address",
          "name": "from",
          "type": "address"
        },
        {
          "internalType": "address",
          "name": "to",
          "type": "address"
        },
        {
          "internalType": "uint256",
          "name": "tokenId",
          "type": "uint256"
        }
      ],
      "name": "transferFrom",
      "outputs": [],
      "stateMutability": "nonpayable",
      "type": "function"
    },
    {
      "inputs": [
        {
          "internalType": "address",
          "name": "newOwner",
          "type": "address"
        }
      ],
      "name": "transferOwnership",
      "outputs": [],
      "stateMutability": "nonpayable",
      "type": "function"
    }
  ],
  "bytecode": "0x6080604052670de0b6b3a76400006008553480156200001d57600080fd5b506040518060400160405280600a81526020017f5461796c6f724b6c6179000000000000000000000000000000000000000000008152506040518060400160405280600a81526020017f5441594c4f524b4c4159000000000000000000000000000000000000000000008152508160009080519060200190620000a2929190620001b2565b508060019080519060200190620000bb929190620001b2565b505050620000de620000d2620000e460201b60201c565b620000ec60201b60201c565b620002c7565b600033905090565b6000600660009054906101000a900473ffffffffffffffffffffffffffffffffffffffff16905081600660006101000a81548173ffffffffffffffffffffffffffffffffffffffff021916908373ffffffffffffffffffffffffffffffffffffffff1602179055508173ffffffffffffffffffffffffffffffffffffffff168173ffffffffffffffffffffffffffffffffffffffff167f8be0079c531659141344cd1fd0a4f28419497f9722a3daafe3b4186f6b6457e060405160405180910390a35050565b828054620001c09062000262565b90600052602060002090601f016020900481019282620001e4576000855562000230565b82601f10620001ff57805160ff191683800117855562000230565b8280016001018555821562000230579182015b828111156200022f57825182559160200191906001019062000212565b5b5090506200023f919062000243565b5090565b5b808211156200025e57600081600090555060010162000244565b5090565b600060028204905060018216806200027b57607f821691505b6020821081141562000292576200029162000298565b5b50919050565b7f4e487b7100000000000000000000000000000000000000000000000000000000600052602260045260246000fd5b61349a80620002d76000396000f3fe60806040526004361061014b5760003560e01c806395d89b41116100b6578063c87b56dd1161006f578063c87b56dd146104b6578063e985e9c5146104f3578063ed88c68e14610530578063f2fde38b1461053a578063f4a0a52814610563578063fb37e8831461058c5761014b565b806395d89b411461039457806398bdf6f5146103bf578063a22cb465146103ea578063b88d4fde14610413578063bf1882471461043c578063c1e6a476146104795761014b565b80636352211e116101085780636352211e146102705780636817c76c146102ad5780636bb5a3e0146102d857806370a0823114610315578063715018a6146103525780638da5cb5b146103695761014b565b806301ffc9a71461015057806306fdde031461018d578063081812fc146101b8578063095ea7b3146101f557806323b872dd1461021e57806342842e0e14610247575b600080fd5b34801561015c57600080fd5b506101776004803603810190610172919061242e565b6105a8565b60405161018491906128bb565b60405180910390f35b34801561019957600080fd5b506101a261068a565b6040516101af91906128d6565b60405180910390f35b3480156101c457600080fd5b506101df60048036038101906101da91906124c1565b61071c565b6040516101ec9190612854565b60405180910390f35b34801561020157600080fd5b5061021c600480360381019061021791906123f2565b6107a1565b005b34801561022a57600080fd5b50610245600480360381019061024091906122ec565b6108b9565b005b34801561025357600080fd5b5061026e600480360381019061026991906122ec565b610919565b005b34801561027c57600080fd5b50610297600480360381019061029291906124c1565b610939565b6040516102a49190612854565b60405180910390f35b3480156102b957600080fd5b506102c26109eb565b6040516102cf9190612b38565b60405180910390f35b3480156102e457600080fd5b506102ff60048036038101906102fa9190612287565b6109f1565b60405161030c9190612b38565b60405180910390f35b34801561032157600080fd5b5061033c60048036038101906103379190612287565b610a09565b6040516103499190612b38565b60405180910390f35b34801561035e57600080fd5b50610367610ac1565b005b34801561037557600080fd5b5061037e610b49565b60405161038b9190612854565b60405180910390f35b3480156103a057600080fd5b506103a9610b73565b6040516103b691906128d6565b60405180910390f35b3480156103cb57600080fd5b506103d4610c05565b6040516103e19190612b38565b60405180910390f35b3480156103f657600080fd5b50610411600480360381019061040c91906123b6565b610c11565b005b34801561041f57600080fd5b5061043a6004803603810190610435919061233b565b610c27565b005b34801561044857600080fd5b50610463600480360381019061045e9190612287565b610c89565b6040516104709190612b38565b60405180910390f35b34801561048557600080fd5b506104a0600480360381019061049b91906124c1565b610ca1565b6040516104ad91906128d6565b60405180910390f35b3480156104c257600080fd5b506104dd60048036038101906104d891906124c1565b610d41565b6040516104ea91906128d6565b60405180910390f35b3480156104ff57600080fd5b5061051a600480360381019061051591906122b0565b610de8565b60405161052791906128bb565b60405180910390f35b610538610e7c565b005b34801561054657600080fd5b50610561600480360381019061055c9190612287565b610f67565b005b34801561056f57600080fd5b5061058a600480360381019061058591906124c1565b61105f565b005b6105a660048036038101906105a19190612480565b6110e5565b005b60007f80ac58cd000000000000000000000000000000000000000000000000000000007bffffffffffffffffffffffffffffffffffffffffffffffffffffffff1916827bffffffffffffffffffffffffffffffffffffffffffffffffffffffff1916148061067357507f5b5e139f000000000000000000000000000000000000000000000000000000007bffffffffffffffffffffffffffffffffffffffffffffffffffffffff1916827bffffffffffffffffffffffffffffffffffffffffffffffffffffffff1916145b806106835750610682826111fe565b5b9050919050565b60606000805461069990612d8e565b80601f01602080910402602001604051908101604052809291908181526020018280546106c590612d8e565b80156107125780601f106106e757610100808354040283529160200191610712565b820191906000526020600020905b8154815290600101906020018083116106f557829003601f168201915b5050505050905090565b600061072782611268565b610766576040517f08c379a000000000000000000000000000000000000000000000000000000000815260040161075d90612ab8565b60405180910390fd5b6004600083815260200190815260200160002060009054906101000a900473ffffffffffffffffffffffffffffffffffffffff169050919050565b60006107ac82610939565b90508073ffffffffffffffffffffffffffffffffffffffff168373ffffffffffffffffffffffffffffffffffffffff16141561081d576040517f08c379a000000000000000000000000000000000000000000000000000000000815260040161081490612958565b60405180910390fd5b8073ffffffffffffffffffffffffffffffffffffffff1661083c6112d4565b73ffffffffffffffffffffffffffffffffffffffff16148061086b575061086a816108656112d4565b610de8565b5b6108aa576040517f08c379a00000000000000000000000000000000000000000000000000000000081526004016108a190612ad8565b60405180910390fd5b6108b483836112dc565b505050565b6108ca6108c46112d4565b82611395565b610909576040517f08c379a000000000000000000000000000000000000000000000000000000000815260040161090090612a58565b60405180910390fd5b610914838383611473565b505050565b61093483838360405180602001604052806000815250610c27565b505050565b6000806002600084815260200190815260200160002060009054906101000a900473ffffffffffffffffffffffffffffffffffffffff169050600073ffffffffffffffffffffffffffffffffffffffff168173ffffffffffffffffffffffffffffffffffffffff1614156109e2576040517f08c379a00000000000000000000000000000000000000000000000000000000081526004016109d9906129d8565b60405180910390fd5b80915050919050565b60085481565b60096020528060005260406000206000915090505481565b60008073ffffffffffffffffffffffffffffffffffffffff168273ffffffffffffffffffffffffffffffffffffffff161415610a7a576040517f08c379a0000000000000000000000000000000000000000000000000000000008152600401610a7190612a98565b60405180910390fd5b600360008373ffffffffffffffffffffffffffffffffffffffff1673ffffffffffffffffffffffffffffffffffffffff168152602001908152602001600020549050919050565b610ac96112d4565b73ffffffffffffffffffffffffffffffffffffffff16610ae7610b49565b73ffffffffffffffffffffffffffffffffffffffff1614610b3d576040517f08c379a0000000000000000000000000000000000000000000000000000000008152600401610b3490612a78565b60405180910390fd5b610b4760006116da565b565b6000600660009054906101000a900473ffffffffffffffffffffffffffffffffffffffff16905090565b606060018054610b8290612d8e565b80601f0160208091040260200160405190810160405280929190818152602001828054610bae90612d8e565b8015610bfb5780601f10610bd057610100808354040283529160200191610bfb565b820191906000526020600020905b815481529060010190602001808311610bde57829003601f168201915b5050505050905090565b60078060000154905081565b610c23610c1c6112d4565b83836117a0565b5050565b610c38610c326112d4565b83611395565b610c77576040517f08c379a0000000000000000000000000000000000000000000000000000000008152600401610c6e90612a58565b60405180910390fd5b610c838484848461190d565b50505050565b600a6020528060005260406000206000915090505481565b600b6020528060005260406000206000915090508054610cc090612d8e565b80601f0160208091040260200160405190810160405280929190818152602001828054610cec90612d8e565b8015610d395780601f10610d0e57610100808354040283529160200191610d39565b820191906000526020600020905b815481529060010190602001808311610d1c57829003601f168201915b505050505081565b6060610d4c82611268565b610d8b576040517f08c379a0000000000000000000000000000000000000000000000000000000008152600401610d82906128f8565b60405180910390fd5b6000610d9561197c565b90506000815111610db55760405180602001604052806000815250610de0565b80610dbf84611993565b604051602001610dd0929190612830565b6040516020818303038152906040525b915050919050565b6000600560008473ffffffffffffffffffffffffffffffffffffffff1673ffffffffffffffffffffffffffffffffffffffff16815260200190815260200160002060008373ffffffffffffffffffffffffffffffffffffffff1673ffffffffffffffffffffffffffffffffffffffff16815260200190815260200160002060009054906101000a900460ff16905092915050565b346008541115610ec1576040517f08c379a0000000000000000000000000000000000000000000000000000000008152600401610eb890612998565b60405180910390fd5b34600a60003373ffffffffffffffffffffffffffffffffffffffff1673ffffffffffffffffffffffffffffffffffffffff1681526020019081526020016000206000828254610f109190612c1d565b92505081905550610f1f610b49565b73ffffffffffffffffffffffffffffffffffffffff166108fc349081150290604051600060405180830381858888f19350505050158015610f64573d6000803e3d6000fd5b50565b610f6f6112d4565b73ffffffffffffffffffffffffffffffffffffffff16610f8d610b49565b73ffffffffffffffffffffffffffffffffffffffff1614610fe3576040517f08c379a0000000000000000000000000000000000000000000000000000000008152600401610fda90612a78565b60405180910390fd5b600073ffffffffffffffffffffffffffffffffffffffff168173ffffffffffffffffffffffffffffffffffffffff161415611053576040517f08c379a000000000000000000000000000000000000000000000000000000000815260040161104a90612918565b60405180910390fd5b61105c816116da565b50565b6110676112d4565b73ffffffffffffffffffffffffffffffffffffffff16611085610b49565b73ffffffffffffffffffffffffffffffffffffffff16146110db576040517f08c379a00000000000000000000000000000000000000000000000000000000081526004016110d290612a78565b60405180910390fd5b8060088190555050565b34600854111561112a576040517f08c379a000000000000000000000000000000000000000000000000000000000815260040161112190612998565b60405180910390fd5b60006111366007611b40565b90506111426007611b4e565b61114a610b49565b73ffffffffffffffffffffffffffffffffffffffff166108fc349081150290604051600060405180830381858888f1935050505015801561118f573d6000803e3d6000fd5b5034600960003373ffffffffffffffffffffffffffffffffffffffff1673ffffffffffffffffffffffffffffffffffffffff16815260200190815260200160002060008282546111df9190612c1d565b925050819055506111f03382611b64565b6111fa8183611d3e565b5050565b60007f01ffc9a7000000000000000000000000000000000000000000000000000000007bffffffffffffffffffffffffffffffffffffffffffffffffffffffff1916827bffffffffffffffffffffffffffffffffffffffffffffffffffffffff1916149050919050565b60008073ffffffffffffffffffffffffffffffffffffffff166002600084815260200190815260200160002060009054906101000a900473ffffffffffffffffffffffffffffffffffffffff1673ffffffffffffffffffffffffffffffffffffffff1614159050919050565b600033905090565b816004600083815260200190815260200160002060006101000a81548173ffffffffffffffffffffffffffffffffffffffff021916908373ffffffffffffffffffffffffffffffffffffffff160217905550808273ffffffffffffffffffffffffffffffffffffffff1661134f83610939565b73ffffffffffffffffffffffffffffffffffffffff167f8c5be1e5ebec7d5bd14f71427d1e84f3dd0314c0f7b2291e5b200ac8c7c3b92560405160405180910390a45050565b60006113a082611268565b6113df576040517f08c379a00000000000000000000000000000000000000000000000000000000081526004016113d690612b18565b60405180910390fd5b60006113ea83610939565b90508073ffffffffffffffffffffffffffffffffffffffff168473ffffffffffffffffffffffffffffffffffffffff16148061142c575061142b8185610de8565b5b8061146a57508373ffffffffffffffffffffffffffffffffffffffff166114528461071c565b73ffffffffffffffffffffffffffffffffffffffff16145b91505092915050565b8273ffffffffffffffffffffffffffffffffffffffff1661149382610939565b73ffffffffffffffffffffffffffffffffffffffff16146114e9576040517f08c379a00000000000000000000000000000000000000000000000000000000081526004016114e090612978565b60405180910390fd5b600073ffffffffffffffffffffffffffffffffffffffff168273ffffffffffffffffffffffffffffffffffffffff161415611559576040517f08c379a000000000000000000000000000000000000000000000000000000000815260040161155090612938565b60405180910390fd5b611564838383611db2565b61156f6000826112dc565b6001600360008573ffffffffffffffffffffffffffffffffffffffff1673ffffffffffffffffffffffffffffffffffffffff16815260200190815260200160002060008282546115bf9190612ca4565b925050819055506001600360008473ffffffffffffffffffffffffffffffffffffffff1673ffffffffffffffffffffffffffffffffffffffff16815260200190815260200160002060008282546116169190612c1d565b92505081905550816002600083815260200190815260200160002060006101000a81548173ffffffffffffffffffffffffffffffffffffffff021916908373ffffffffffffffffffffffffffffffffffffffff160217905550808273ffffffffffffffffffffffffffffffffffffffff168473ffffffffffffffffffffffffffffffffffffffff167fddf252ad1be2c89b69c2b068fc378daa952ba7f163c4a11628f55a4df523b3ef60405160405180910390a46116d5838383611db7565b505050565b6000600660009054906101000a900473ffffffffffffffffffffffffffffffffffffffff16905081600660006101000a81548173ffffffffffffffffffffffffffffffffffffffff021916908373ffffffffffffffffffffffffffffffffffffffff1602179055508173ffffffffffffffffffffffffffffffffffffffff168173ffffffffffffffffffffffffffffffffffffffff167f8be0079c531659141344cd1fd0a4f28419497f9722a3daafe3b4186f6b6457e060405160405180910390a35050565b8173ffffffffffffffffffffffffffffffffffffffff168373ffffffffffffffffffffffffffffffffffffffff16141561180f576040517f08c379a000000000000000000000000000000000000000000000000000000000815260040161180690612a38565b60405180910390fd5b80600560008573ffffffffffffffffffffffffffffffffffffffff1673ffffffffffffffffffffffffffffffffffffffff16815260200190815260200160002060008473ffffffffffffffffffffffffffffffffffffffff1673ffffffffffffffffffffffffffffffffffffffff16815260200190815260200160002060006101000a81548160ff0219169083151502179055508173ffffffffffffffffffffffffffffffffffffffff168373ffffffffffffffffffffffffffffffffffffffff167f17307eab39ab6107e8899845ad3d59bd9653f200f220920489ca2b5937696c318360405161190091906128bb565b60405180910390a3505050565b611918848484611473565b61192484848484611dbc565b80611937575061193684848484611f22565b5b611976576040517f08c379a000000000000000000000000000000000000000000000000000000000815260040161196d90612a18565b60405180910390fd5b50505050565b606060405180602001604052806000815250905090565b606060008214156119db576040518060400160405280600181526020017f30000000000000000000000000000000000000000000000000000000000000008152509050611b3b565b600082905060005b60008214611a0d5780806119f690612df1565b915050600a82611a069190612c73565b91506119e3565b60008167ffffffffffffffff811115611a4f577f4e487b7100000000000000000000000000000000000000000000000000000000600052604160045260246000fd5b6040519080825280601f01601f191660200182016040528015611a815781602001600182028036833780820191505090505b5090505b60008514611b3457600182611a9a9190612ca4565b9150600a85611aa99190612e3a565b6030611ab59190612c1d565b60f81b818381518110611af1577f4e487b7100000000000000000000000000000000000000000000000000000000600052603260045260246000fd5b60200101907effffffffffffffffffffffffffffffffffffffffffffffffffffffffffffff1916908160001a905350600a85611b2d9190612c73565b9450611a85565b8093505050505b919050565b600081600001549050919050565b6001816000016000828254019250508190555050565b600073ffffffffffffffffffffffffffffffffffffffff168273ffffffffffffffffffffffffffffffffffffffff161415611bd4576040517f08c379a0000000000000000000000000000000000000000000000000000000008152600401611bcb906129b8565b60405180910390fd5b611bdd81611268565b15611c1d576040517f08c379a0000000000000000000000000000000000000000000000000000000008152600401611c1490612af8565b60405180910390fd5b611c2960008383611db2565b6001600360008473ffffffffffffffffffffffffffffffffffffffff1673ffffffffffffffffffffffffffffffffffffffff1681526020019081526020016000206000828254611c799190612c1d565b92505081905550816002600083815260200190815260200160002060006101000a81548173ffffffffffffffffffffffffffffffffffffffff021916908373ffffffffffffffffffffffffffffffffffffffff160217905550808273ffffffffffffffffffffffffffffffffffffffff16600073ffffffffffffffffffffffffffffffffffffffff167fddf252ad1be2c89b69c2b068fc378daa952ba7f163c4a11628f55a4df523b3ef60405160405180910390a4611d3a60008383611db7565b5050565b611d4782611268565b611d86576040517f08c379a0000000000000000000000000000000000000000000000000000000008152600401611d7d906129f8565b60405180910390fd5b80600b60008481526020019081526020016000209080519060200190611dad9291906120ab565b505050565b505050565b505050565b6000611ddd8473ffffffffffffffffffffffffffffffffffffffff16612088565b15611f15578373ffffffffffffffffffffffffffffffffffffffff16636745782b611e066112d4565b8786866040518563ffffffff1660e01b8152600401611e28949392919061286f565b602060405180830381600087803b158015611e4257600080fd5b505af1925050508015611e7357506040513d601f19601f82011682018060405250810190611e709190612457565b60015b611ec5573d8060008114611ea3576040519150601f19603f3d011682016040523d82523d6000602084013e611ea8565b606091505b50600081511415611ebd576000915050611f1a565b805181602001fd5b636745782b60e01b7bffffffffffffffffffffffffffffffffffffffffffffffffffffffff1916817bffffffffffffffffffffffffffffffffffffffffffffffffffffffff191614915050611f1a565b600190505b949350505050565b6000611f438473ffffffffffffffffffffffffffffffffffffffff16612088565b1561207b578373ffffffffffffffffffffffffffffffffffffffff1663150b7a02611f6c6112d4565b8786866040518563ffffffff1660e01b8152600401611f8e949392919061286f565b602060405180830381600087803b158015611fa857600080fd5b505af1925050508015611fd957506040513d601f19601f82011682018060405250810190611fd69190612457565b60015b61202b573d8060008114612009576040519150601f19603f3d011682016040523d82523d6000602084013e61200e565b606091505b50600081511415612023576000915050612080565b805181602001fd5b63150b7a0260e01b7bffffffffffffffffffffffffffffffffffffffffffffffffffffffff1916817bffffffffffffffffffffffffffffffffffffffffffffffffffffffff191614915050612080565b600190505b949350505050565b6000808273ffffffffffffffffffffffffffffffffffffffff163b119050919050565b8280546120b790612d8e565b90600052602060002090601f0160209004810192826120d95760008555612120565b82601f106120f257805160ff1916838001178555612120565b82800160010185558215612120579182015b8281111561211f578251825591602001919060010190612104565b5b50905061212d9190612131565b5090565b5b8082111561214a576000816000905550600101612132565b5090565b600061216161215c84612b78565b612b53565b90508281526020810184848401111561217957600080fd5b612184848285612d4c565b509392505050565b600061219f61219a84612ba9565b612b53565b9050828152602081018484840111156121b757600080fd5b6121c2848285612d4c565b509392505050565b6000813590506121d981613408565b92915050565b6000813590506121ee8161341f565b92915050565b60008135905061220381613436565b92915050565b60008151905061221881613436565b92915050565b600082601f83011261222f57600080fd5b813561223f84826020860161214e565b91505092915050565b600082601f83011261225957600080fd5b813561226984826020860161218c565b91505092915050565b6000813590506122818161344d565b92915050565b60006020828403121561229957600080fd5b60006122a7848285016121ca565b91505092915050565b600080604083850312156122c357600080fd5b60006122d1858286016121ca565b92505060206122e2858286016121ca565b9150509250929050565b60008060006060848603121561230157600080fd5b600061230f868287016121ca565b9350506020612320868287016121ca565b925050604061233186828701612272565b9150509250925092565b6000806000806080858703121561235157600080fd5b600061235f878288016121ca565b9450506020612370878288016121ca565b935050604061238187828801612272565b925050606085013567ffffffffffffffff81111561239e57600080fd5b6123aa8782880161221e565b91505092959194509250565b600080604083850312156123c957600080fd5b60006123d7858286016121ca565b92505060206123e8858286016121df565b9150509250929050565b6000806040838503121561240557600080fd5b6000612413858286016121ca565b925050602061242485828601612272565b9150509250929050565b60006020828403121561244057600080fd5b600061244e848285016121f4565b91505092915050565b60006020828403121561246957600080fd5b600061247784828501612209565b91505092915050565b60006020828403121561249257600080fd5b600082013567ffffffffffffffff8111156124ac57600080fd5b6124b884828501612248565b91505092915050565b6000602082840312156124d357600080fd5b60006124e184828501612272565b91505092915050565b6124f381612cd8565b82525050565b61250281612cea565b82525050565b600061251382612bda565b61251d8185612bf0565b935061252d818560208601612d5b565b61253681612f27565b840191505092915050565b600061254c82612be5565b6125568185612c01565b9350612566818560208601612d5b565b61256f81612f27565b840191505092915050565b600061258582612be5565b61258f8185612c12565b935061259f818560208601612d5b565b80840191505092915050565b60006125b8602e83612c01565b91506125c382612f38565b604082019050919050565b60006125db602683612c01565b91506125e682612f87565b604082019050919050565b60006125fe602383612c01565b915061260982612fd6565b604082019050919050565b6000612621602083612c01565b915061262c82613025565b602082019050919050565b6000612644602483612c01565b915061264f8261304e565b604082019050919050565b6000612667601583612c01565b91506126728261309d565b602082019050919050565b600061268a601f83612c01565b9150612695826130c6565b602082019050919050565b60006126ad602883612c01565b91506126b8826130ef565b604082019050919050565b60006126d0602b83612c01565b91506126db8261313e565b604082019050919050565b60006126f3604183612c01565b91506126fe8261318d565b606082019050919050565b6000612716601883612c01565b915061272182613202565b602082019050919050565b6000612739603083612c01565b91506127448261322b565b604082019050919050565b600061275c602083612c01565b91506127678261327a565b602082019050919050565b600061277f602883612c01565b915061278a826132a3565b604082019050919050565b60006127a2602b83612c01565b91506127ad826132f2565b604082019050919050565b60006127c5603783612c01565b91506127d082613341565b604082019050919050565b60006127e8601b83612c01565b91506127f382613390565b602082019050919050565b600061280b602b83612c01565b9150612816826133b9565b604082019050919050565b61282a81612d42565b82525050565b600061283c828561257a565b9150612848828461257a565b91508190509392505050565b600060208201905061286960008301846124ea565b92915050565b600060808201905061288460008301876124ea565b61289160208301866124ea565b61289e6040830185612821565b81810360608301526128b08184612508565b905095945050505050565b60006020820190506128d060008301846124f9565b92915050565b600060208201905081810360008301526128f08184612541565b905092915050565b60006020820190508181036000830152612911816125ab565b9050919050565b60006020820190508181036000830152612931816125ce565b9050919050565b60006020820190508181036000830152612951816125f1565b9050919050565b6000602082019050818103600083015261297181612614565b9050919050565b6000602082019050818103600083015261299181612637565b9050919050565b600060208201905081810360008301526129b18161265a565b9050919050565b600060208201905081810360008301526129d18161267d565b9050919050565b600060208201905081810360008301526129f1816126a0565b9050919050565b60006020820190508181036000830152612a11816126c3565b9050919050565b60006020820190508181036000830152612a31816126e6565b9050919050565b60006020820190508181036000830152612a5181612709565b9050919050565b60006020820190508181036000830152612a718161272c565b9050919050565b60006020820190508181036000830152612a918161274f565b9050919050565b60006020820190508181036000830152612ab181612772565b9050919050565b60006020820190508181036000830152612ad181612795565b9050919050565b60006020820190508181036000830152612af1816127b8565b9050919050565b60006020820190508181036000830152612b11816127db565b9050919050565b60006020820190508181036000830152612b31816127fe565b9050919050565b6000602082019050612b4d6000830184612821565b92915050565b6000612b5d612b6e565b9050612b698282612dc0565b919050565b6000604051905090565b600067ffffffffffffffff821115612b9357612b92612ef8565b5b612b9c82612f27565b9050602081019050919050565b600067ffffffffffffffff821115612bc457612bc3612ef8565b5b612bcd82612f27565b9050602081019050919050565b600081519050919050565b600081519050919050565b600082825260208201905092915050565b600082825260208201905092915050565b600081905092915050565b6000612c2882612d42565b9150612c3383612d42565b9250827fffffffffffffffffffffffffffffffffffffffffffffffffffffffffffffffff03821115612c6857612c67612e6b565b5b828201905092915050565b6000612c7e82612d42565b9150612c8983612d42565b925082612c9957612c98612e9a565b5b828204905092915050565b6000612caf82612d42565b9150612cba83612d42565b925082821015612ccd57612ccc612e6b565b5b828203905092915050565b6000612ce382612d22565b9050919050565b60008115159050919050565b60007fffffffff0000000000000000000000000000000000000000000000000000000082169050919050565b600073ffffffffffffffffffffffffffffffffffffffff82169050919050565b6000819050919050565b82818337600083830152505050565b60005b83811015612d79578082015181840152602081019050612d5e565b83811115612d88576000848401525b50505050565b60006002820490506001821680612da657607f821691505b60208210811415612dba57612db9612ec9565b5b50919050565b612dc982612f27565b810181811067ffffffffffffffff82111715612de857612de7612ef8565b5b80604052505050565b6000612dfc82612d42565b91507fffffffffffffffffffffffffffffffffffffffffffffffffffffffffffffffff821415612e2f57612e2e612e6b565b5b600182019050919050565b6000612e4582612d42565b9150612e5083612d42565b925082612e6057612e5f612e9a565b5b828206905092915050565b7f4e487b7100000000000000000000000000000000000000000000000000000000600052601160045260246000fd5b7f4e487b7100000000000000000000000000000000000000000000000000000000600052601260045260246000fd5b7f4e487b7100000000000000000000000000000000000000000000000000000000600052602260045260246000fd5b7f4e487b7100000000000000000000000000000000000000000000000000000000600052604160045260246000fd5b6000601f19601f8301169050919050565b7f4b495031374d657461646174613a2055524920717565727920666f72206e6f6e60008201527f6578697374656e7420746f6b656e000000000000000000000000000000000000602082015250565b7f4f776e61626c653a206e6577206f776e657220697320746865207a65726f206160008201527f6464726573730000000000000000000000000000000000000000000000000000602082015250565b7f4b495031373a207472616e7366657220746f20746865207a65726f206164647260008201527f6573730000000000000000000000000000000000000000000000000000000000602082015250565b7f4b495031373a20617070726f76616c20746f2063757272656e74206f776e6572600082015250565b7f4b495031373a207472616e736665722066726f6d20696e636f7272656374206f60008201527f776e657200000000000000000000000000000000000000000000000000000000602082015250565b7f4e6f7420656e6f756768204b4c41592073656e742e0000000000000000000000600082015250565b7f4b495031373a206d696e7420746f20746865207a65726f206164647265737300600082015250565b7f4b495031373a206f776e657220717565727920666f72206e6f6e65786973746560008201527f6e7420746f6b656e000000000000000000000000000000000000000000000000602082015250565b7f4b495031374d657461646174613a2055524920736574206f66206e6f6e65786960008201527f7374656e7420746f6b656e000000000000000000000000000000000000000000602082015250565b7f4b495031373a207472616e7366657220746f206e6f6e20494b4950313752656360008201527f65697665722f49455243373231526563656976657220696d706c656d656e746560208201527f7200000000000000000000000000000000000000000000000000000000000000604082015250565b7f4b495031373a20617070726f766520746f2063616c6c65720000000000000000600082015250565b7f4b495031373a207472616e736665722063616c6c6572206973206e6f74206f7760008201527f6e6572206e6f7220617070726f76656400000000000000000000000000000000602082015250565b7f4f776e61626c653a2063616c6c6572206973206e6f7420746865206f776e6572600082015250565b7f4b495031373a2061646472657373207a65726f206973206e6f7420612076616c60008201527f6964206f776e6572000000000000000000000000000000000000000000000000602082015250565b7f4b495031373a20617070726f76656420717565727920666f72206e6f6e65786960008201527f7374656e7420746f6b656e000000000000000000000000000000000000000000602082015250565b7f4b495031373a20617070726f76652063616c6c6572206973206e6f74206f776e60008201527f6572206e6f7220617070726f76656420666f7220616c6c000000000000000000602082015250565b7f4b495031373a20746f6b656e20616c7265616479206d696e7465640000000000600082015250565b7f4b495031373a206f70657261746f7220717565727920666f72206e6f6e65786960008201527f7374656e7420746f6b656e000000000000000000000000000000000000000000602082015250565b61341181612cd8565b811461341c57600080fd5b50565b61342881612cea565b811461343357600080fd5b50565b61343f81612cf6565b811461344a57600080fd5b50565b61345681612d42565b811461346157600080fd5b5056fea26469706673582212208e30556f86f365c3e0a1d618a333f4565e17746a16d6b90d43264b0277930c4764736f6c63430008040033",
  "linkReferences": {},
  "deployedLinkReferences": {}
}